{
  "_format": "hh-sol-artifact-1",
  "contractName": "SpamReports",
  "sourceName": "contracts/SpamReports.sol",
  "abi": [
    {
      "inputs": [
        {
          "internalType": "string",
          "name": "_ip",
          "type": "string"
        },
        {
          "internalType": "string",
          "name": "_description",
          "type": "string"
        }
      ],
      "name": "appeal",
      "outputs": [],
      "stateMutability": "nonpayable",
      "type": "function"
    },
    {
      "inputs": [
        {
          "internalType": "string",
          "name": "",
          "type": "string"
        },
        {
          "internalType": "uint256",
          "name": "",
          "type": "uint256"
        }
      ],
      "name": "appeals",
      "outputs": [
        {
          "internalType": "address",
          "name": "reporter",
          "type": "address"
        },
        {
          "internalType": "string",
          "name": "ip",
          "type": "string"
        },
        {
          "internalType": "string",
          "name": "description",
          "type": "string"
        },
        {
          "internalType": "uint256",
          "name": "timestamp",
          "type": "uint256"
        }
      ],
      "stateMutability": "view",
      "type": "function"
    },
    {
      "inputs": [
        {
          "internalType": "string",
          "name": "_ip",
          "type": "string"
        }
      ],
      "name": "getAppeals",
      "outputs": [
        {
          "components": [
            {
              "internalType": "address",
              "name": "reporter",
              "type": "address"
            },
            {
              "internalType": "string",
              "name": "ip",
              "type": "string"
            },
            {
              "internalType": "string",
              "name": "description",
              "type": "string"
            },
            {
              "internalType": "uint256",
              "name": "timestamp",
              "type": "uint256"
            }
          ],
          "internalType": "struct SpamReports.Appeal[]",
          "name": "",
          "type": "tuple[]"
        }
      ],
      "stateMutability": "view",
      "type": "function"
    },
    {
      "inputs": [
        {
          "internalType": "string",
          "name": "_ip",
          "type": "string"
        }
      ],
      "name": "getIpScore",
      "outputs": [
        {
          "internalType": "uint256",
          "name": "",
          "type": "uint256"
        },
        {
          "internalType": "bool",
          "name": "",
          "type": "bool"
        }
      ],
      "stateMutability": "view",
      "type": "function"
    },
    {
      "inputs": [
        {
          "internalType": "string",
          "name": "_ip",
          "type": "string"
        }
      ],
      "name": "getReports",
      "outputs": [
        {
          "components": [
            {
              "internalType": "address",
              "name": "reporter",
              "type": "address"
            },
            {
              "internalType": "string",
              "name": "ip",
              "type": "string"
            },
            {
              "internalType": "string",
              "name": "description",
              "type": "string"
            },
            {
              "internalType": "string",
              "name": "evidenceHash",
              "type": "string"
            },
            {
              "internalType": "uint256",
              "name": "timestamp",
              "type": "uint256"
            }
          ],
          "internalType": "struct SpamReports.Report[]",
          "name": "",
          "type": "tuple[]"
        }
      ],
      "stateMutability": "view",
      "type": "function"
    },
    {
      "inputs": [
        {
          "internalType": "string",
          "name": "",
          "type": "string"
        }
      ],
      "name": "ipList",
      "outputs": [
        {
          "internalType": "string",
          "name": "ip",
          "type": "string"
        },
        {
          "internalType": "uint256",
          "name": "score",
          "type": "uint256"
        },
        {
          "internalType": "bool",
          "name": "isBlocked",
          "type": "bool"
        }
      ],
      "stateMutability": "view",
      "type": "function"
    },
    {
      "inputs": [
        {
          "internalType": "string",
          "name": "_ip",
          "type": "string"
        },
        {
          "internalType": "string",
          "name": "_description",
          "type": "string"
        },
        {
          "internalType": "string",
          "name": "_evidenceHash",
          "type": "string"
        }
      ],
      "name": "reportSpam",
      "outputs": [],
      "stateMutability": "nonpayable",
      "type": "function"
    },
    {
      "inputs": [
        {
          "internalType": "string",
          "name": "",
          "type": "string"
        },
        {
          "internalType": "uint256",
          "name": "",
          "type": "uint256"
        }
      ],
      "name": "reports",
      "outputs": [
        {
          "internalType": "address",
          "name": "reporter",
          "type": "address"
        },
        {
          "internalType": "string",
          "name": "ip",
          "type": "string"
        },
        {
          "internalType": "string",
          "name": "description",
          "type": "string"
        },
        {
          "internalType": "string",
          "name": "evidenceHash",
          "type": "string"
        },
        {
          "internalType": "uint256",
          "name": "timestamp",
          "type": "uint256"
        }
      ],
      "stateMutability": "view",
      "type": "function"
    }
  ],
  "bytecode": "0x608060405234801561001057600080fd5b50611ef5806100206000396000f3fe608060405234801561001057600080fd5b50600436106100885760003560e01c8063c18dc7231161005b578063c18dc72314610128578063c635504b14610158578063e6b611db1461018a578063f9158e99146101bb57610088565b806309c0fe701461008d5780631a68638a146100c057806358c71758146100f0578063a81b29dc1461010c575b600080fd5b6100a760048036038101906100a291906115ec565b6101ef565b6040516100b79493929190611b8d565b60405180910390f35b6100da60048036038101906100d591906114a8565b61039f565b6040516100e79190611c02565b60405180910390f35b61010a60048036038101906101059190611555565b610662565b005b610126600480360381019061012191906114e9565b610a68565b005b610142600480360381019061013d91906114a8565b610d86565b60405161014f9190611be0565b60405180910390f35b610172600480360381019061016d91906114a8565b610fa7565b60405161018193929190611c24565b60405180910390f35b6101a4600480360381019061019f91906114a8565b61108c565b6040516101b2929190611cc2565b60405180910390f35b6101d560048036038101906101d091906115ec565b6110d1565b6040516101e6959493929190611b25565b60405180910390f35b600282805160208101820180518482526020830160208501208183528095505050505050818154811061021e57fe5b9060005260206000209060040201600091509150508060000160009054906101000a900473ffffffffffffffffffffffffffffffffffffffff1690806001018054600181600116156101000203166002900480601f0160208091040260200160405190810160405280929190818152602001828054600181600116156101000203166002900480156102f15780601f106102c6576101008083540402835291602001916102f1565b820191906000526020600020905b8154815290600101906020018083116102d457829003601f168201915b505050505090806002018054600181600116156101000203166002900480601f01602080910402602001604051908101604052809291908181526020018280546001816001161561010002031660029004801561038f5780601f106103645761010080835404028352916020019161038f565b820191906000526020600020905b81548152906001019060200180831161037257829003601f168201915b5050505050908060030154905084565b60606001826040516103b19190611ae2565b9081526020016040518091039020805480602002602001604051908101604052809291908181526020016000905b8282101561065757838290600052602060002090600502016040518060a00160405290816000820160009054906101000a900473ffffffffffffffffffffffffffffffffffffffff1673ffffffffffffffffffffffffffffffffffffffff1673ffffffffffffffffffffffffffffffffffffffff168152602001600182018054600181600116156101000203166002900480601f0160208091040260200160405190810160405280929190818152602001828054600181600116156101000203166002900480156104f15780601f106104c6576101008083540402835291602001916104f1565b820191906000526020600020905b8154815290600101906020018083116104d457829003601f168201915b50505050508152602001600282018054600181600116156101000203166002900480601f0160208091040260200160405190810160405280929190818152602001828054600181600116156101000203166002900480156105935780601f1061056857610100808354040283529160200191610593565b820191906000526020600020905b81548152906001019060200180831161057657829003601f168201915b50505050508152602001600382018054600181600116156101000203166002900480601f0160208091040260200160405190810160405280929190818152602001828054600181600116156101000203166002900480156106355780601f1061060a57610100808354040283529160200191610635565b820191906000526020600020905b81548152906001019060200180831161061857829003601f168201915b50505050508152602001600482015481525050815260200190600101906103df565b505050509050919050565b600073ffffffffffffffffffffffffffffffffffffffff163373ffffffffffffffffffffffffffffffffffffffff16141561069c57600080fd5b6040516020016106ab90611b10565b60405160208183030381529060405280519060200120836040516020016106d29190611ae2565b6040516020818303038152906040528051906020012014156106f357600080fd5b60405160200161070290611b10565b60405160208183030381529060405280519060200120826040516020016107299190611ae2565b60405160208183030381529060405280519060200120141561074a57600080fd5b60405160200161075990611b10565b60405160208183030381529060405280519060200120816040516020016107809190611ae2565b6040516020818303038152906040528051906020012014156107a157600080fd5b600080846040516107b29190611ae2565b908152602001604051809103902090506040516020016107d190611b10565b60405160208183030381529060405280519060200120816000016040516020016107fb9190611af9565b60405160208183030381529060405280519060200120141561083f578381600001908051906020019061082f92919061131f565b50600181600101819055506108fe565b6000600180866040516108529190611ae2565b90815260200160405180910390208054905003905042610e1060018760405161087b9190611ae2565b9081526020016040518091039020838154811061089457fe5b9060005260206000209060050201600401540111156108e8576040517f08c379a00000000000000000000000000000000000000000000000000000000081526004016108df90611c62565b60405180910390fd5b8160010160008154809291906001019190505550505b60058160010154106109285760018160020160006101000a81548160ff0219169083151502179055505b61093061139f565b6040518060a001604052803373ffffffffffffffffffffffffffffffffffffffff16815260200186815260200185815260200184815260200142815250905060018560405161097f9190611ae2565b908152602001604051809103902081908060018154018082558091505060019003906000526020600020906005020160009091909190915060008201518160000160006101000a81548173ffffffffffffffffffffffffffffffffffffffff021916908373ffffffffffffffffffffffffffffffffffffffff1602179055506020820151816001019080519060200190610a1a92919061131f565b506040820151816002019080519060200190610a3792919061131f565b506060820151816003019080519060200190610a5492919061131f565b506080820151816004015550505050505050565b604051602001610a7790611b10565b6040516020818303038152906040528051906020012082604051602001610a9e9190611ae2565b604051602081830303815290604052805190602001201415610abf57600080fd5b604051602001610ace90611b10565b6040516020818303038152906040528051906020012081604051602001610af59190611ae2565b604051602081830303815290604052805190602001201415610b1657600080fd5b60008083604051610b279190611ae2565b90815260200160405180910390209050600081600101541415610b7f576040517f08c379a0000000000000000000000000000000000000000000000000000000008152600401610b7690611c82565b60405180910390fd5b60006001600285604051610b939190611ae2565b90815260200160405180910390208054905003905042610e10600286604051610bbc9190611ae2565b90815260200160405180910390208381548110610bd557fe5b906000526020600020906004020160030154011115610c29576040517f08c379a0000000000000000000000000000000000000000000000000000000008152600401610c2090611ca2565b60405180910390fd5b816001016000815480929190600190039190505550600582600101541015610c695760008260020160006101000a81548160ff0219169083151502179055505b610c716113e4565b60405180608001604052803373ffffffffffffffffffffffffffffffffffffffff168152602001868152602001858152602001428152509050600285604051610cba9190611ae2565b908152602001604051809103902081908060018154018082558091505060019003906000526020600020906004020160009091909190915060008201518160000160006101000a81548173ffffffffffffffffffffffffffffffffffffffff021916908373ffffffffffffffffffffffffffffffffffffffff1602179055506020820151816001019080519060200190610d5592919061131f565b506040820151816002019080519060200190610d7292919061131f565b506060820151816003015550505050505050565b6060600282604051610d989190611ae2565b9081526020016040518091039020805480602002602001604051908101604052809291908181526020016000905b82821015610f9c57838290600052602060002090600402016040518060800160405290816000820160009054906101000a900473ffffffffffffffffffffffffffffffffffffffff1673ffffffffffffffffffffffffffffffffffffffff1673ffffffffffffffffffffffffffffffffffffffff168152602001600182018054600181600116156101000203166002900480601f016020809104026020016040519081016040528092919081815260200182805460018160011615610100020316600290048015610ed85780601f10610ead57610100808354040283529160200191610ed8565b820191906000526020600020905b815481529060010190602001808311610ebb57829003601f168201915b50505050508152602001600282018054600181600116156101000203166002900480601f016020809104026020016040519081016040528092919081815260200182805460018160011615610100020316600290048015610f7a5780601f10610f4f57610100808354040283529160200191610f7a565b820191906000526020600020905b815481529060010190602001808311610f5d57829003601f168201915b5050505050815260200160038201548152505081526020019060010190610dc6565b505050509050919050565b600081805160208101820180518482526020830160208501208183528095505050505050600091509050806000018054600181600116156101000203166002900480601f0160208091040260200160405190810160405280929190818152602001828054600181600116156101000203166002900480156110695780601f1061103e57610100808354040283529160200191611069565b820191906000526020600020905b81548152906001019060200180831161104c57829003601f168201915b5050505050908060010154908060020160009054906101000a900460ff16905083565b600080600080846040516110a09190611ae2565b9081526020016040518091039020905080600101548160020160009054906101000a900460ff169250925050915091565b600182805160208101820180518482526020830160208501208183528095505050505050818154811061110057fe5b9060005260206000209060050201600091509150508060000160009054906101000a900473ffffffffffffffffffffffffffffffffffffffff1690806001018054600181600116156101000203166002900480601f0160208091040260200160405190810160405280929190818152602001828054600181600116156101000203166002900480156111d35780601f106111a8576101008083540402835291602001916111d3565b820191906000526020600020905b8154815290600101906020018083116111b657829003601f168201915b505050505090806002018054600181600116156101000203166002900480601f0160208091040260200160405190810160405280929190818152602001828054600181600116156101000203166002900480156112715780601f1061124657610100808354040283529160200191611271565b820191906000526020600020905b81548152906001019060200180831161125457829003601f168201915b505050505090806003018054600181600116156101000203166002900480601f01602080910402602001604051908101604052809291908181526020018280546001816001161561010002031660029004801561130f5780601f106112e45761010080835404028352916020019161130f565b820191906000526020600020905b8154815290600101906020018083116112f257829003601f168201915b5050505050908060040154905085565b828054600181600116156101000203166002900490600052602060002090601f016020900481019282601f1061136057805160ff191683800117855561138e565b8280016001018555821561138e579182015b8281111561138d578251825591602001919060010190611372565b5b50905061139b9190611422565b5090565b6040518060a00160405280600073ffffffffffffffffffffffffffffffffffffffff168152602001606081526020016060815260200160608152602001600081525090565b6040518060800160405280600073ffffffffffffffffffffffffffffffffffffffff1681526020016060815260200160608152602001600081525090565b5b8082111561143b576000816000905550600101611423565b5090565b600082601f83011261145057600080fd5b813561146361145e82611d1c565b611ceb565b9150808252602083016020830185838301111561147f57600080fd5b61148a838284611e53565b50505092915050565b6000813590506114a281611ea8565b92915050565b6000602082840312156114ba57600080fd5b600082013567ffffffffffffffff8111156114d457600080fd5b6114e08482850161143f565b91505092915050565b600080604083850312156114fc57600080fd5b600083013567ffffffffffffffff81111561151657600080fd5b6115228582860161143f565b925050602083013567ffffffffffffffff81111561153f57600080fd5b61154b8582860161143f565b9150509250929050565b60008060006060848603121561156a57600080fd5b600084013567ffffffffffffffff81111561158457600080fd5b6115908682870161143f565b935050602084013567ffffffffffffffff8111156115ad57600080fd5b6115b98682870161143f565b925050604084013567ffffffffffffffff8111156115d657600080fd5b6115e28682870161143f565b9150509250925092565b600080604083850312156115ff57600080fd5b600083013567ffffffffffffffff81111561161957600080fd5b6116258582860161143f565b925050602061163685828601611493565b9150509250929050565b600061164c83836119d6565b905092915050565b60006116608383611a40565b905092915050565b61167181611e0b565b82525050565b61168081611e0b565b82525050565b600061169182611d81565b61169b8185611dbc565b9350836020820285016116ad85611d4c565b8060005b858110156116e957848403895281516116ca8582611640565b94506116d583611da2565b925060208a019950506001810190506116b1565b50829750879550505050505092915050565b600061170682611d8c565b6117108185611dcd565b93508360208202850161172285611d5c565b8060005b8581101561175e578484038952815161173f8582611654565b945061174a83611daf565b925060208a01995050600181019050611726565b50829750879550505050505092915050565b61177981611e1d565b82525050565b600061178a82611d97565b6117948185611dde565b93506117a4818560208601611e62565b6117ad81611e97565b840191505092915050565b60006117c382611d97565b6117cd8185611def565b93506117dd818560208601611e62565b6117e681611e97565b840191505092915050565b60006117fc82611d97565b6118068185611e00565b9350611816818560208601611e62565b80840191505092915050565b60008154600181166000811461183f5760018114611864576118a8565b607f60028304166118508187611e00565b955060ff19831686528086019350506118a8565b600282046118728187611e00565b955061187d85611d6c565b60005b8281101561189f57815481890152600182019150602081019050611880565b82880195505050505b505092915050565b60006118bd603d83611def565b91507f57652072656365697665642061207265706f727420666577206d6f6d656e747360008301527f2061676f2e20506c656173652074727920616761696e206c617465722e0000006020830152604082019050919050565b6000611923600083611e00565b9150600082019050919050565b600061193d601883611def565b91507f4950206e6f7420666f756e6420696e20746865206c69737400000000000000006000830152602082019050919050565b600061197d603e83611def565b91507f576520726563656976656420616e2061707065616c20666577206d6f6d656e7460008301527f732061676f2e20506c656173652074727920616761696e206c617465722e00006020830152604082019050919050565b60006080830160008301516119ee6000860182611668565b5060208301518482036020860152611a06828261177f565b91505060408301518482036040860152611a20828261177f565b9150506060830151611a356060860182611ac4565b508091505092915050565b600060a083016000830151611a586000860182611668565b5060208301518482036020860152611a70828261177f565b91505060408301518482036040860152611a8a828261177f565b91505060608301518482036060860152611aa4828261177f565b9150506080830151611ab96080860182611ac4565b508091505092915050565b611acd81611e49565b82525050565b611adc81611e49565b82525050565b6000611aee82846117f1565b915081905092915050565b6000611b058284611822565b915081905092915050565b6000611b1b82611916565b9150819050919050565b600060a082019050611b3a6000830188611677565b8181036020830152611b4c81876117b8565b90508181036040830152611b6081866117b8565b90508181036060830152611b7481856117b8565b9050611b836080830184611ad3565b9695505050505050565b6000608082019050611ba26000830187611677565b8181036020830152611bb481866117b8565b90508181036040830152611bc881856117b8565b9050611bd76060830184611ad3565b95945050505050565b60006020820190508181036000830152611bfa8184611686565b905092915050565b60006020820190508181036000830152611c1c81846116fb565b905092915050565b60006060820190508181036000830152611c3e81866117b8565b9050611c4d6020830185611ad3565b611c5a6040830184611770565b949350505050565b60006020820190508181036000830152611c7b816118b0565b9050919050565b60006020820190508181036000830152611c9b81611930565b9050919050565b60006020820190508181036000830152611cbb81611970565b9050919050565b6000604082019050611cd76000830185611ad3565b611ce46020830184611770565b9392505050565b6000604051905081810181811067ffffffffffffffff82111715611d1257611d11611e95565b5b8060405250919050565b600067ffffffffffffffff821115611d3757611d36611e95565b5b601f19601f8301169050602081019050919050565b6000819050602082019050919050565b6000819050602082019050919050565b60008190508160005260206000209050919050565b600081519050919050565b600081519050919050565b600081519050919050565b6000602082019050919050565b6000602082019050919050565b600082825260208201905092915050565b600082825260208201905092915050565b600082825260208201905092915050565b600082825260208201905092915050565b600081905092915050565b6000611e1682611e29565b9050919050565b60008115159050919050565b600073ffffffffffffffffffffffffffffffffffffffff82169050919050565b6000819050919050565b82818337600083830152505050565b60005b83811015611e80578082015181840152602081019050611e65565b83811115611e8f576000848401525b50505050565bfe5b6000601f19601f8301169050919050565b611eb181611e49565b8114611ebc57600080fd5b5056fea26469706673582212201c5e9d60a4b8c0af480416cb7893bf0480b2747e8febe4473f5764dfb77f22a864736f6c63430007030033",
  "linkReferences": {},
  "deployedLinkReferences": {}
}